:400000000080002011000000090800000908000008B5044B1A6803F53F5302331A6000F0FBFB00BFFA46004010B5054C237833B9044B13B10448AFF300800123237010BD5F
:400040003881FF1F00000000041A0000084B10B51BB108490848AFF300800848036803B910BD074B002BFBD0BDE81040184700BF000000003C81FF1F041A0000C880FF1FE6
:4000800000000000024A136801331360704700BF5881FF1F024A1368013B1360704700BF5881FF1F024A536801335360704700BF5881FF1F024A5368013B5360704700BFBB
:4000C0005881FF1F0022014B5A6070475881FF1F0022014B1A6070475881FF1F38B5074CA56800F05FFD064B5855A3680133A360092B02DD0022A260E26038BD5881FF1F5F
:40010000F082FF1F00B58BB00A2201A901F099FB01A800F0BFFD0BB05DF804FB000000002DE9884862B600F02FFD00F0B3FE00F09FFCBB4800F0C4FCBA4800F00FFCBA4888
:4001400000F034FCB94800F05DFCB94800F082FCB84800F0F7FEB84800F01CFFB74B9B68B74AD35C782B04D1B44B00229A600122DA60B34CA378B3480370E378437023795F
:40018000837001F017FBAD4B186163782D2B02D14042AA4B1861AA4CE379AB480370237A4370637A837001F005FBA44B5861A3792D2B02D14042A14B5861DFF880A2DAF838
:4001C000100001F057F806460F46CAE90667DAF800B0584601F04EF804460D46CAE9084502460B463046394600F0F6FE80468946CAE90A897EA3D3E9002301F0A1F8DAE960
:400200000C2300F0EBFE06460F467BA3D3E90023DAE90E0101F094F802460B463046394600F0DAFE06460F4675A3D3E90023DAE9100101F085F802460B463046394600F01B
:40024000CDFE06460F46CAE9126701F08BFACAF85000CAE91645CAE91845CAE90E89CAE91089CAE90C67CAE91A67DAF8140001F001F806460F46CAE91C67DAF8040000F0E3
:40028000F9FF04460D46CAE91E4502460B463046394600F0A1FE06460F46CAE920675AA3D3E9002301F04CF8DAE9222300F096FE8046894656A3D3E90023DAE9240101F0B8
:4002C0003FF802460B464046494600F085FE8046894651A3D3E90023DAE9260101F030F802460B464046494600F078FE80468946CAE9288901F036FACAF8A800CAE92C457F
:40030000CAE92E45CAE92467CAE92667CAE92289CAE930890BF1FF3BBBF1080F05D8302000F080FC302000F07DFC444B1B680A3B592B02D8302000F075FC404B1B68093354
:40034000082B05D8302000F06DFC302000F06AFC3A4B1B686333592B02D8302000F062FC364B186848B9302000F05CFC302000F059FC302000F056FC01E0FFF7C3FE2C20DF
:4003800000F050FC2D4B5B68013B082B05D8302000F048FC302000F045FC284B5B680A3B592B02D8302000F03DFC244B5B680933082B05D8302000F035FC302000F032FCC6
:4003C0001E4B5B686333592B02D8302000F02AFC1A4B5868D0BB302000F024FC302000F021FC302000F01EFC32E000BFAFF300808104C58F3177FD3F7AC7293A924B01403E
:400400004A7B832F4CA6DA3FEBE2361AC05BF33F6E3480B74082F93FEF38454772F9DF3FDD0000009500000085000000B5000000A5000000C5000000D10000005881FF1FE3
:40044000F082FF1F0883FF1FE882FF1FFFF75AFE2C2000F0E7FB4B4B1B6D013B082B05D8302000F0DFFB302000F0DCFB454B1B6D0A3B592B02D8302000F0D4FB414B186DD9
:4004800048B9302000F0CEFB302000F0CBFB302000F0C8FB01E0FFF735FE2C2000F0C2FB384BD3F8A830013B082B05D8302000F0B9FB302000F0B6FB324BD3F8A8300A3B6A
:4004C000592B02D8302000F0ADFB2E4BD3F8A80048B9302000F0A6FB302000F0A3FB302000F0A0FB01E0FFF70DFE3B2000F09AFB0A2000F097FB0D2000F094FB214C206D1B
:400500000028B8BF4042C0B200F070FCD4F8A8000028B8BF4042C0B200F06EFCD4F8A830002B06DA012000F0C3FC002000F0CCFC05E0002000F0BCFC012000F0C5FC114B39
:400540001B6D002B06DA012000F0CAFC002000F0D3FC05E0002000F0C3FC012000F0CCFC084C206D0028B8BF4042C0B200F03EFCD4F8A8000028B8BF4042C0B200F03CFCD8
:40058000ECE500BF5881FF1FFEE700BFF0B40022174611E050F82760F3B226F0FF0608E001EB420511F812406D78A5550132013BDBB2002BF4D10137172FEBD9F0BC704787
:4005C000064B1B78DBB203F00701054A11701B09013213704422034B1A707047CF0100496E5800407658004008B50A46002101F035F908BD38B51722264B1A801823264AD5
:4006000013704FF49C7102321180023213700222224B1A7008224FF040231A70032103F5007319701E4B1B78DBB21E490B701E4B1A8041F25122023B1A80002419250CE0A9
:400640001A4B1B7803F0010343EA440404F003044FF4F07000F0ACFC013D0DB1032CEFD115B90320FFF790FF114B4FF480721A8007221A7000220F490A704820023108709A
:400680001A700222033B1A700B4A137843F00303137038BD80400040824000400043004008010049A146004022420040254200400440004006400040A243004008B501F00D
:4006C000C2F808BD38B572B63B4A137843F00403137000240CE0394D630019194A0011462A44084691882858FFF77EFF0134E4B2072CF0D900240BE03049A30018194200A0
:4007000088180622416B006BFFF7D8FF0134E4B2002CF1D02A494FF09040FFF737FF294A294B1A60294B2A4A136002F57862136002F56E522B32137843F00203137010320B
:40074000137843F002031370224C237843F040032370A2F58632513A137843F01003137008221D491D48FFF7A9FF0A221C491D48FFF7A4FF08221C491C48FFF79FFF082220
:400780001B491C48FFF79AFF1B4A137843F0080313701A4D61232B70FFF72CFF81232B700122174B1A70FFF70BFF0E2221461548FFF784FF38BD00BFE8460040081A00008B
:4007C00060000048444404445804014044440004D8040140A0430040080600480251004010060048C05100401C060048125100402406004832510040224300400048004011
:4008000004000840B043004008B500F0D7FF03680C2B00D1FEE7FEE708B5104E104D16E029686B68AC68002204E051F8040B43F8040B0432A242F8D1E868002203E0002192
:4008400043F8041B04328242F9D11035013E002EE6D100F0B9FFFFF763FCFEE701000000901B000008B5104A104B1A60104A136843F40073136000230AE0032B03D80D4A18
:4008800052F8231000E00C490C4A42F8231001332F2BF2D90A4B1A780A4B1A70074A0A4B1A60FFF70FFF08BD0004FA050CED00E014ED00E000000000090800000080FF1F4F
:4008C000BC760040C080FF1F08ED00E001BE704770B504460E46074B1D681F2802D90020FFF7F4FF04F01F04103455F8240045F8246070BD08ED00E038B504460D460729CF
:4009000002D90020FFF7E2FF1F2C02D90020FFF7DDFF04F01F0000F1604000F564406D01EDB2057038BD00BF014B1B685865704708ED00E04001C0B2014B1870704700BF45
:4009400005E400E02022014B1A60704700E100E02022014B1A60704780E100E010B50446FFF7F6FF2046FFF7DFFF0720FFF7E2FFFFF7E8FF10BD00BF014B1B681865704790
:4009800008ED00E04001C0B2014B1870704700BF04E400E01022014B1A60704700E100E01022014B1A60704780E100E010B50446FFF7F6FF2046FFF7DFFF0720FFF7E2FF0B
:4009C000FFF7E8FF10BD00BF014B1B681866704708ED00E04001C0B2014B1870704700BF08E400E04FF48072014B1A60704700BF00E100E04FF48072014B1A60704700BF49
:400A000080E100E010B50446FFF7F4FF2046FFF7DBFF0720FFF7DEFFFFF7E4FF10BD00BF014B1B68D865704708ED00E04001C0B2014B1870704700BF07E400E08022014B9A
:400A40001A60704700E100E08022014B1A60704780E100E010B50446FFF7F6FF2046FFF7DFFF0720FFF7E2FFFFF7E8FF10BD00BF054A137843F0010313701032137843F0F5
:400A800001031370704700BFA2430040014B1B689864704708ED00E04001C0B2014B1870704700BF02E400E00422014B1A60704700E100E00422014B1A60704780E100E0B2
:400AC00010B50446FFF7F6FF2046FFF7DFFF0720FFF7E2FFFFF7E8FF10BD00BF08B511490020FFF7F5FE07210020FFF705FF00220D4B1A7072220D4B1A702022063B1A7072
:400B00000B490120FFF7E4FE07210120FFF7F4FE0622084B1A70472210331A7002224A331A7008BDB90C0000B882FF1F8B650040510D00002A65004010B500F041FA044658
:400B40000D4A137843F020031370063A137843F010031370094A0123136009490B7843F010030B70022307490B60136000F01CF9204600F029FA10BD9B65004000E100E007
:400B80009465004080E200E008B5054B5B7823B9FFF7A4FF0122024B5A70FFF7CDFF08BDB882FF1F0122194B1A60194A9378DBB2D178C9B2127912F0FF0F01D18B4211D071
:400BC000144AD05CC0B20133DBB21F2B00D900230F4A9370137913F0FF0F13D000220C4B1A710FE00C4B1B78DBB213F0200F06D00A4A1078C0B213F01E0F02D102E0002051
:400C000000E000200122064B1A60704780E100E0B882FF1F0C83FF1F656500404865004000E100E0164BD9799B79DBB2994205D25A1E914214BF0022012204E0CA1A092AAD
:400C400014BF00220122002AECD1994207D10D4B1B7813F0040F02D10B4B18707047092900D90021094B58540131054BD971054B1B7813F0020F02D00222054B1A607047F3
:400C8000B882FF1F64650040496500402C83FF1F00E200E038B5074B5B782BB938BDFFF7C1FF0134A4B201E005460024285D0028F5D138BDB882FF1F1D4B1B78DBB213F08F
:400CC0001E0F05D01B4803F01E0201780A43027003F0200303F0FF0233B3174B1978C9B2164B1B78DBB21648C154164B1B7813F0FF0F02D00121144B197010490B78013301
:400D0000DBB20B700B78DBB21F2B02D900210B4B19700A4B1978C9B20C4B1B78DBB2994202D10121074B1970002AC5D1704700BF65650040B882FF1F48650040BB82FF1F13
:400D40000C83FF1FBC82FF1FBD82FF1FBA82FF1F13E0104B1B78DBB2092B02D900220D4B1A700C4A1378DBB20B49CB5CDBB20B490B7013780133DBB21370064B1B78DBB2AD
:400D8000074A1278934204D0064B1B7813F0040FDFD07047BE82FF1F2C83FF1F49650040BF82FF1F64650040054A137843F0020313701032137843F002031370704700BF3B
:400DC000A2430040024A137843F080031370704775640040014B1870704700BF04640040014B1870704700BF44640040014B1870704700BF24640040014B1870704700BF6E
:400E000034640040014B1870704700BF84640040014B1878704700BF64640040014B1878704700BF5464004008B501E0FFF7F6FFFFF7EEFF10F0100FF8D108BD10B5134A89
:400E4000137803F0C00343F009031370104C237843F001032370FF20FFF7BCFFFF20FFF7BFFF9420FFF7C2FF4320FFF7C5FF0020FFF7C8FF00F0A4F8237843F010032370A6
:400E800000F0A2F8FFF7D0FF10BD00BF756400409464004008B5054B1B7823B9FFF7CEFF0122024B1A70FFF78DFF08BDC182FF1F044A137803F0FB03800000F0040018438C
:400EC0001070704700510040044A137803F0F703C00000F0080018431070704700510040044A137803F0EF03000100F0100018431070704700510040044A137803F0DF03F9
:400F0000400100F0200018431070704700510040014B1B68D864704708ED00E04001C0B2014B1870704700BF03E400E00822014B1A60704700E100E00822014B1A607047D3
:400F400080E100E010B50446FFF7F6FF2046FFF7DFFF0720FFF7E2FFFFF7E8FF10BD00BF014B1B689865704708ED00E04001C0B2014B1870704700BF06E400E04022014BC8
:400F80001A60704700E100E04022014B1A60704780E100E010B50446FFF7F6FF2046FFF7DFFF0720FFF7E2FFFFF7E8FF10BD00BF0230800803D000BF01380046FCD1704735
:400FC000EFF3108072B6704780F31088704700BF81F0004102E000BF83F0004330B54FEA41044FEA430594EA050F08BF90EA020F1FBF54EA000C55EA020C7FEA645C7FEA47
:40100000655C00F0E2804FEA5454D4EB5555B8BF6D420CDD2C4480EA020281EA030382EA000083EA010180EA020281EA0303362D88BF30BD11F0004F4FEA01314FF4801C0A
:401040004CEA113102D0404261EB410113F0004F4FEA03334CEA133302D0524263EB430394EA050F00F0A780A4F10104D5F1200E0DDB02FA0EFC22FA05F2801841F10001DC
:4010800003FA0EF2801843FA05F359410EE0A5F120050EF1200E012A03FA0EFC28BF4CF0020C43FA05F3C01851EBE37101F0004507D54FF0000EDCF1000C7EEB00006EEBFC
:4010C0000101B1F5801F1BD3B1F5001F0CD349085FEA30004FEA3C0C04F101044FEA445212F5800F80F09A80BCF1004F08BF5FEA500C50F1000041EB045141EA050130BD9B
:401100005FEA4C0C404141EB010111F4801FA4F10104E9D191F0000F04BF01460020B1FA81F308BF2033A3F10B03B3F120020CDA0C3208DD02F1140CC2F10C0201FA0CF038
:4011400021FA02F10CE002F11402D8BFC2F1200C01FA02F120FA0CFCDCBF41EA0C019040E41AA2BF01EB0451294330BD6FEA04041F3C1CDA0C340EDC04F11404C4F120028A
:4011800020FA04F001FA02F340EA030021FA04F345EA030130BDC4F10C04C4F1200220FA02F001FA04F340EA0300294630BD21FA04F0294630BD94F0000F83F4801306BFE2
:4011C00081F480110134013D4EE77FEA645C18BF7FEA655C29D094EA050F08BF90EA020F05D054EA000C04BF1946104630BD91EA030F1EBF0021002030BD5FEA545C05D14F
:401200004000494128BF41F0004130BD14F580043CBF01F5801130BD01F0004545F0FE4141F470014FF0000030BD7FEA645C1ABF194610467FEA655C1CBF0B46024650EA97
:40124000013406BF52EA033591EA030F41F4002130BD00BF90F0000F04BF0021704730B54FF4806404F132044FF000054FF0000150E700BF90F0000F04BF0021704730B587
:401280004FF4806404F1320410F0004548BF40424FF000013EE700BF42004FEAE2014FEA31014FEA02701FBF12F07F4393F07F4F81F06051704792F0000F14BF93F07F4FF5
:4012C000704730B54FF4607401F0004521F0004120E700BF50EA010208BF704730B54FF000050AE050EA010208BF704730B511F0004502D5404261EB41014FF4806404F136
:4013000032045FEA915C3FF4DCAE4FF003025FEADC0C18BF03325FEADC0C18BF033202EBDC02C2F1200300FA03FC20FA02F001FA03FE40EA0E0021FA02F11444C1E600BF20
:4013400070B54FF0FF0C4CF4E06C1CEA11541DBF1CEA135594EA0C0F95EA0C0F00F0DEF82C4481EA030621EA4C5123EA4C5350EA013518BF52EA033541F4801143F4801341
:4013800038D0A0FB02CE4FF00005E1FB02E506F00042E0FB03E54FF00006E1FB03569CF0000F18BF4EF0010EA4F1FF04B6F5007F64F5407404D25FEA4E0E6D4146EB06064A
:4013C00042EAC62141EA55514FEAC52040EA5E504FEACE2EB4F1FD0C88BFBCF5E06F1ED8BEF1004F08BF5FEA500E50F1000041EB045170BD06F0004646EA010140EA0200FE
:4014000081EA0301B4EB5C04C2BFD4EB0C0541EA045170BD41F480114FF0000E013C00F3AB8014F1360FDEBF002001F0004170BDC4F10004203C35DA0C341BDC04F1140404
:40144000C4F1200500FA05F320FA04F001FA05F240EA020001F0004221F0004110EBD37021FA04F642EB06015EEA430E08BF20EAD37070BDC4F10C04C4F1200500FA04F3FE
:4014800020FA05F001FA04F240EA020001F0004110EBD37041F100015EEA430E08BF20EAD37070BDC4F1200500FA05F24EEA020E20FA04F301FA05F243EA020321FA04F02C
:4014C00001F0004121FA04F220EA020000EBD3705EEA430E08BF20EAD37070BD94F0000F0FD101F00046400041EB010111F4801F08BF013CF7D041EA060195F0000F18BF71
:40150000704703F00046520043EB030313F4801F08BF013DF7D043EA0603704794EA0C0F0CEA135518BF95EA0C0F0CD050EA410618BF52EA4306D1D181EA030101F0004172
:401540004FF0000070BD50EA410606BF1046194652EA430619D094EA0C0F02D150EA013613D195EA0C0F05D152EA03361CBF104619460AD181EA030101F0004141F0FE4174
:4015800041F470014FF0000070BD41F0FE4141F4780170BD70B54FF0FF0C4CF4E06C1CEA11541DBF1CEA135594EA0C0F95EA0C0F00F0A7F8A4EB050481EA030E52EA0335D4
:4015C0004FEA013100F088804FEA03334FF0805545EA131343EA12634FEA022245EA111545EA10654FEA00260EF000419D4208BF964244F1FD0404F5407402D25B084FEA49
:401600003202B61A65EB03055B084FEA32024FF480104FF4002CB6EB020E75EB030E22BFB61A754640EA0C005B084FEA3202B6EB020E75EB030E22BFB61A754640EA5C0094
:401640005B084FEA3202B6EB020E75EB030E22BFB61A754640EA9C005B084FEA3202B6EB020E75EB030E22BFB61A754640EADC0055EA060E18D04FEA051545EA16754FEA61
:4016800006164FEAC30343EA52734FEAC2025FEA1C1CC0D111F4801F0BD141EA00014FF000004FF0004CB6E711F4801F04BF01430020B4F1FD0C88BFBCF5E06F3FF6AFAEA9
:4016C000B5EB030C04BFB6EB020C5FEA500C50F1000041EB045170BD0EF0004E4EEA113114EB5C04C2BFD4EB0C0541EA045170BD41F480114FF0000E013C90E645EA060E09
:401700008DE60CEA135594EA0C0F08BF95EA0C0F3FF43BAF94EA0C0F0AD150EA01347FF434AF95EA0C0F7FF425AF104619462CE795EA0C0F06D152EA03353FF4FDAE1046C6
:40174000194622E750EA410618BF52EA43067FF4C5AE50EA41047FF40DAF52EA43057FF4EBAE12E74FEA410212F5001215D211D56FF47873B3EB625212D94FEAC12343F0CA
:40178000004343EA505311F0004F23FA02F018BF404270474FF00000704750EA013005D111F0004008BF6FF0004070474FF00000704700BF0A22002100F0DEB8014B1868BE
:4017C000704700BF2C81FF1F0E4B70B51E460E4C0025E41AA410A54204D056F8253098470135F8E700F0C2F9084B094C1E46E41AA4100025A54204D056F825309847013542
:40180000F8E770BD781B0000781B0000781B0000801B0000931E222B10B50C4602D90020087010BD0A2A06D1002804DA2D230B704042012100E00021214400F0A7F8204618
:4018400010BDFFF7E7BF10B5431E0A44914204D011F8014B03F8014FF8E710BD03460244934202D003F8011BFAE770472DE9F0470F4680463F48D0F800903D4615F8014B90
:4018800009EB0400407800F0080000F0FF0608B12F46F2E72D2C03D1BD1C7C78012603E02B2C04BF7C78BD1C13B1102B0AD15BE0302C57D1287800F0DF0058284DD16C780F
:4018C00010230235002E14BF4FF0004C6FF0004CBCFBF3FA0027384603FB1ACC09EB040E9EF801E01EF0040F01D0303C0BE01EF0030E1BD0BEF1010F0CBF4FF0370E4FF0FD
:40190000570ECEEB0404A34210DDB7F1FF3F0AD0504506D801D1644503DC03FB0040012701E04FF0FF3715F8014BD7E77B1C0CD1002E4FF0220314BF4FF000406FF0004058
:40194000C8F800302AB9BDE8F08706B1404272B107B1691E1160BDE8F0873024002BB1D10823AFE70A23ADE7302CA3D0AAE7BDE8F08700BF3081FF1F13460A460146024889
:401980000068FFF773BF00BF2C81FF1FF0B58BB003460F466D461A4C04F1200E2E4620686168083403C674453546F7D1217920683171911E222930604FF0000001D938707E
:4019C0001CE07D1EB3FBF2F402FB14330AAE334413F8283C411C05F8013F23460CB10846F0E77C543A18C11A8B4206DAF95C1478FC5402F801190133F5E738460BB0F0BD10
:401A0000441A000000000000205100401000405100403000F0510040100000000140001000140140000800400140000A004C0140000200500140200060520040000600483C
:401A400006004300303132333435363738396162636465666768696A6B6C6D6E6F707172737475767778797A00002020202020202020202828282828202020202020202009
:401A80002020202020202020202088101010101010101010101010101010040404040404040404041010101010101041414141414101010101010101010101010101010141
:401AC000010101010110101010101042424242424202020202020202020202020202020202020202021010101020000000000000000000000000000000000000000000006D
:401B000000000000000000000000000000000000000000000000000000000000000000000000000000000000000000000000000000000000000000000000000000000000A5
:401B40000000000000000000000000000000000000000000000000000000000000000000000000000000000000000000F8B500BFF8BC08BC9E4670474D000000650800002C
:401B8000F8B500BFF8BC08BC9E46704729000000A01B0000C880FF1F70000000000200000000000000000000000000000000000000000000000000000000000000000000EA
:401BC00000000000421A0000000000000000000000000000000000000000000000000000000000000000000000000000000000000000000000000000000000000000000089
:401C000000000000CC80FF1F691A000000000000000000000000000000000000000000000000000000000000000000000000000000000000000000000000000000000000B7
:401C40000000000000000000000000000000000000000000000000000000000000000000000000000000000000000000000000000000000000000000000000000000000064
:401C80000000000000000000000000000000000000000000000000000000000000000000000000000000000000000000000000000000000000000000000000000000000024
:401CC00000000000000000000000000000000000000000000000000000000000000000000000000000000000000000000000000000000000000000000000000000000000E4
:401D000000000000000000000000000000000000000000000000000000000000000000000000000000000000000000000000000000000000000000000000000000000000A3
:020000040003F7
:0200000480007A
:40000000015200400164004003650040030301404B040140380501401307014040140140531501400B1701406918014033190140511A0140521B0140094001400F410140CB
:40004000084201400D4301400648014011490140014C0140074D014005500140035101400102840F840F85388B7287108C01E610040206040B040F041301150216011C015E
:4000800022082302260828042A022B013006310434083502360137013C803E013F414041410245D546204701481B49FF4AFF4BFF4DA04F0450185407580459045A045B0434
:4000C0005C805F05604062C06440654066C068C06AC06CC06EC080018302850188018E0296069A01A501A901B004B102B202B401B701B820B980BD02BE10BF40D280D80464
:40010000D904DB04DF0103200440052209080B020D18102811021640170219401B111E101F1120082112230224412501280829022C082D202F203008330238603C0A4040B4
:4001400041204202482049015010512859415A2474017B057C20940196109720A710AA10B710C0D4C265C40ECA65CC03CECCD00DD60FDE2CEA10800884018C0496209A4064
:400180009C08A020A304A408A702A820AA02AB04AD02AE04B102B320E640E88000100419060608060A190C04100211011406181F1B031C061E192008210426192C183102DE
:4001C00033043407350136183A203D203F0454015604580459045B045C015D105F01800882048401850287018A018C0C91019202930296029E01A00CA401B001B101B202FF
:40020000B408B503B604B8A2BE54BF10D418D604D804D904DB04DC81DD10DF210040012905280782086209080EA00F021080110412021420170919201A011C061E801F040F
:40024000210222142620278029013020310237013E08588059015A185E0163406502664067087B047E208108820883028520870188C089048A028B018C428D088F02910196
:400280009210940496209740988099019A409B089D02A020A210A304A401A702A880AB08AE10B340B408B610C0FFC2BFC43DCA01CC85CE40D68FD8B1DE44E402E604EA24DB
:4002C000EE0981018503940496209A409C08A020A304A401A702E20C04130503060C081309030A041208140A1502161417091B04200322142A152D012F0A310C340F3503B9
:4003000036103A223E403F01402441064203440145EC480349FF4AFF4BFF4C624DA04EF04F41500C580459045A045C115D015F016640670269106A306B106D106E106F12B1
:400340008410852186AC87068A208F0C900992D094DC950C962297239B089E03A014A410A540A640A703A80CA921AA71AB0EAD10B160B30FB4E0B510B61FB902BA20BB0838
:40038000BF10C023C106C5B0C6ECC80EC9FFCAFFCBFFCEF0CF44D00CD804D904DA04DC11DD01DF01E6C0EA40EB02000402040404052009080A010B400D080F4010A41644B0
:4003C00019601A011C041E42211823402748280429602A042D80302031083620370838043B403D1440044104440845044742488049204E9850505240801085108708C0665E
:40040000C23DC45ECA1ECC66CE6AD0F6D224E002040305070803090711021301140219011B06250427012A013507360338803E404001464049FF4A074BFF4C404D204EF0FD
:400440004F055008580459045A045C105D015F01604061A862406320807F8108840C8510880489108D0D8E408F02904191109280944C950496239803990C9C089F02A233E6
:40048000A402A503A70CA873A90FAA0CAC4FAD0FAE10B27CB30EB40FB501B680B710BA28BF10D602D711D804D904DB04DC11DD10DF010004012005400688072009080C8A4F
:4004C0000D101204142A170A18011D401E081F1421102220242025042690270228202C082EC02F14300232203680372539143D143E023F4040015020510452045E206D14E1
:400500006F017480760A77248008820484028740880289908B068C108E0A8F2090049240951C99209B089C089D809E049F02A108A420A504A620AA49AE80B440B610C0F6E6
:40054000C2F4C4F2CA72CCF5CEF6D008D620E2F0E6F0EA40EE103140330235203708388053025940CCF0CE100B0230023220348850085B4086208C4094809D609F08C240CA
:40058000CCF0D4A0E64093029C889D609F08A402A808B740EA80838084088C029C889D609F08A402A780AB01B380E080E610EC2085409C809D609F88A780E61003800780B2
:4005C00008020C0113081480800284019C809F88A780B120C030C230C430E040E48087801101778089019B80C408DE04E60100010A0110031A031C0200FF01FF02030000F1
:40060000808000004000000040FFBF0003000000830040838000800000000000000B0B000000000033000000000000000000000000000000000000000000000000000000EA
:40064000000000000000000000000000000000000000000000000000000000000000000000000000000000000000000000000000000000000000000000000000000000007A
:40068000000000000000000000000000000000000000000000000000000000000000000000000000000000000000000000000000000000000000000000000000000000003A
:4006C00000000000000000000000000000000000000000000000000000000000000000000000000000000000000000000000000000000000000000000000000000000000FA
:4007000000000000000000000000000000000000000000000000000000000000000000000000000000000000000000000000000000000000000000000000000000000000B9
:0200000490006A
:0400000000004005B7
:0200000490105A
:04000000BC90ACAF55
:0200000490303A
:0200000049E0D5
:0200000490402A
:4000000000000000000000000000000000000000000000000000000000000000000000000000000000000000000000000000000000000000000000000000000000000000C0
:400040000000000000000000000000000000000000000000000000000000000000000000000000000000000000000000000000000000000000000000000000000000000080
:400080000000000000000000000000000000000000000000000000000000000000000000000000000000000000000000000000000000000000000000000000000000000040
:4000C0000000000000000000000000000000000000000000000000000000000000000000000000000000000000000000000000000000000000000000000000000000000000
:0200000490501A
:0C00000000012E16106900012E225A4942
:00000001FF